{
    "contractName": "UniswapV3Manager",
    "abi": [
        {
            "inputs": [
                {
                    "internalType": "address",
                    "name": "factory_",
                    "type": "address"
                }
            ],
            "stateMutability": "nonpayable",
            "type": "constructor"
        },
        {
            "inputs": [
                {
                    "internalType": "uint256",
                    "name": "x",
                    "type": "uint256"
                },
                {
                    "internalType": "uint256",
                    "name": "y",
                    "type": "uint256"
                },
                {
                    "internalType": "uint256",
                    "name": "denominator",
                    "type": "uint256"
                }
            ],
            "name": "PRBMath_MulDiv_Overflow",
            "type": "error"
        },
        {
            "inputs": [
                {
                    "internalType": "uint256",
                    "name": "amount0",
                    "type": "uint256"
                },
                {
                    "internalType": "uint256",
                    "name": "amount1",
                    "type": "uint256"
                }
            ],
            "name": "SlippageCheckFailed",
            "type": "error"
        },
        {
            "inputs": [
                {
                    "internalType": "uint256",
                    "name": "amountOut",
                    "type": "uint256"
                }
            ],
            "name": "TooLittleReceived",
            "type": "error"
        },
        {
            "inputs": [],
            "name": "factory",
            "outputs": [
                {
                    "internalType": "address",
                    "name": "",
                    "type": "address"
                }
            ],
            "stateMutability": "view",
            "type": "function"
        },
        {
            "inputs": [
                {
                    "components": [
                        {
                            "internalType": "address",
                            "name": "tokenA",
                            "type": "address"
                        },
                        {
                            "internalType": "address",
                            "name": "tokenB",
                            "type": "address"
                        },
                        {
                            "internalType": "uint24",
                            "name": "tickSpacing",
                            "type": "uint24"
                        },
                        {
                            "internalType": "int24",
                            "name": "lowerTick",
                            "type": "int24"
                        },
                        {
                            "internalType": "int24",
                            "name": "upperTick",
                            "type": "int24"
                        },
                        {
                            "internalType": "uint256",
                            "name": "amount0Desired",
                            "type": "uint256"
                        },
                        {
                            "internalType": "uint256",
                            "name": "amount1Desired",
                            "type": "uint256"
                        },
                        {
                            "internalType": "uint256",
                            "name": "amount0Min",
                            "type": "uint256"
                        },
                        {
                            "internalType": "uint256",
                            "name": "amount1Min",
                            "type": "uint256"
                        }
                    ],
                    "internalType": "struct IUniswapV3Manager.MintParams",
                    "name": "params",
                    "type": "tuple"
                }
            ],
            "name": "mint",
            "outputs": [
                {
                    "internalType": "uint256",
                    "name": "amount0",
                    "type": "uint256"
                },
                {
                    "internalType": "uint256",
                    "name": "amount1",
                    "type": "uint256"
                }
            ],
            "stateMutability": "nonpayable",
            "type": "function"
        },
        {
            "inputs": [
                {
                    "components": [
                        {
                            "internalType": "bytes",
                            "name": "path",
                            "type": "bytes"
                        },
                        {
                            "internalType": "address",
                            "name": "recipient",
                            "type": "address"
                        },
                        {
                            "internalType": "uint256",
                            "name": "amountIn",
                            "type": "uint256"
                        },
                        {
                            "internalType": "uint256",
                            "name": "minAmountOut",
                            "type": "uint256"
                        }
                    ],
                    "internalType": "struct IUniswapV3Manager.SwapParams",
                    "name": "params",
                    "type": "tuple"
                }
            ],
            "name": "swap",
            "outputs": [
                {
                    "internalType": "uint256",
                    "name": "amountOut",
                    "type": "uint256"
                }
            ],
            "stateMutability": "nonpayable",
            "type": "function"
        },
        {
            "inputs": [
                {
                    "components": [
                        {
                            "internalType": "address",
                            "name": "tokenIn",
                            "type": "address"
                        },
                        {
                            "internalType": "address",
                            "name": "tokenOut",
                            "type": "address"
                        },
                        {
                            "internalType": "uint24",
                            "name": "tickSpacing",
                            "type": "uint24"
                        },
                        {
                            "internalType": "uint256",
                            "name": "amountIn",
                            "type": "uint256"
                        },
                        {
                            "internalType": "uint160",
                            "name": "sqrtPriceLimitX96",
                            "type": "uint160"
                        }
                    ],
                    "internalType": "struct IUniswapV3Manager.SwapSingleParams",
                    "name": "params",
                    "type": "tuple"
                }
            ],
            "name": "swapSingle",
            "outputs": [
                {
                    "internalType": "uint256",
                    "name": "amountOut",
                    "type": "uint256"
                }
            ],
            "stateMutability": "nonpayable",
            "type": "function"
        },
        {
            "inputs": [
                {
                    "internalType": "uint256",
                    "name": "amount0",
                    "type": "uint256"
                },
                {
                    "internalType": "uint256",
                    "name": "amount1",
                    "type": "uint256"
                },
                {
                    "internalType": "bytes",
                    "name": "data",
                    "type": "bytes"
                }
            ],
            "name": "uniswapV3MintCallback",
            "outputs": [],
            "stateMutability": "nonpayable",
            "type": "function"
        },
        {
            "inputs": [
                {
                    "internalType": "int256",
                    "name": "amount0",
                    "type": "int256"
                },
                {
                    "internalType": "int256",
                    "name": "amount1",
                    "type": "int256"
                },
                {
                    "internalType": "bytes",
                    "name": "data_",
                    "type": "bytes"
                }
            ],
            "name": "uniswapV3SwapCallback",
            "outputs": [],
            "stateMutability": "nonpayable",
            "type": "function"
        }
    ],
    "bytecode": "60a060405234801561001057600080fd5b50604051620047f8380380620047f883398101604081905261003191610042565b6001600160a01b0316608052610072565b60006020828403121561005457600080fd5b81516001600160a01b038116811461006b57600080fd5b9392505050565b60805161475d6200009b6000396000818160cc0152818161021a015261110d015261475d6000f3fe60806040523480156200001157600080fd5b50600436106200006a5760003560e01c8063049bbb12146200006f578063aa88a96c1462000099578063c45a015514620000c6578063cf8c2a381462000107578063d3487997146200011e578063fa461e331462000137575b600080fd5b6200008662000080366004620014a3565b6200014e565b6040519081526020015b60405180910390f35b620000b0620000aa366004620014bc565b62000210565b6040805192835260208301919091520162000090565b620000ee7f000000000000000000000000000000000000000000000000000000000000000081565b6040516001600160a01b03909116815260200162000090565b620000866200011836600462001594565b62000554565b620001356200012f3660046200169b565b62000614565b005b62000135620001483660046200169b565b62000712565b60006200020a6060830135336200016c60a0860160808701620016f2565b6040805180820190915280620001866020890189620016f2565b6200019860608a0160408b0162001712565b620001aa60408b0160208c01620016f2565b604051606093841b6001600160601b0319908116602083015260e89390931b6001600160e81b0319166034820152921b166037820152604b016040516020818303038152906040528152602001336001600160a01b03168152506200085f565b92915050565b60008080620002727f0000000000000000000000000000000000000000000000000000000000000000620002486020870187620016f2565b6200025a6040880160208901620016f2565b6200026c6060890160408a0162001712565b620009b9565b905060008190506000816001600160a01b0316633850c7bd6040518163ffffffff1660e01b81526004016040805180830381865afa158015620002b9573d6000803e3d6000fd5b505050506040513d601f19601f82011682018060405250810190620002df919062001749565b509050600062000300620002fa6080890160608a0162001788565b62000ab9565b905060006200031a620002fa60a08a0160808b0162001788565b90506000620003358484848c60a001358d60c0013562000f27565b90506001600160a01b038516633c8a7d8d336200035960808d0160608e0162001788565b6200036b60a08e0160808f0162001788565b8560405180606001604052808c6001600160a01b0316630dfe16816040518163ffffffff1660e01b8152600401602060405180830381865afa158015620003b6573d6000803e3d6000fd5b505050506040513d601f19601f82011682018060405250810190620003dc9190620017a8565b6001600160a01b031681526020018c6001600160a01b031663d21220a76040518163ffffffff1660e01b8152600401602060405180830381865afa15801562000429573d6000803e3d6000fd5b505050506040513d601f19601f820116820180604052508101906200044f9190620017a8565b6001600160a01b0390811682523360209283015260408051845183168185015292840151821683820152929092015190911660608201526080016040516020818303038152906040526040518663ffffffff1660e01b8152600401620004ba95949392919062001810565b60408051808303816000875af1158015620004d9573d6000803e3d6000fd5b505050506040513d601f19601f82011682018060405250810190620004ff91906200185f565b909850965060e08901358810806200051b575088610100013587105b156200054957604051630a8f6c8d60e41b815260048101899052602481018890526044015b60405180910390fd5b505050505050915091565b600033815b8351620005669062000ff9565b9050620005b88460400151826200058257856020015162000584565b305b60006040518060400160405280620005a08a600001516200103b565b8152602001876001600160a01b03168152506200085f565b60408501528015620005dc578351309250620005d49062001067565b845262000559565b8360400151925083606001518310156200060d576040516308e0955f60e31b81526004810184905260240162000540565b5050919050565b6000620006248284018462001884565b805160408083015190516323b872dd60e01b81526001600160a01b0391821660048201523360248201526044810189905292935016906323b872dd90606401600060405180830381600087803b1580156200067e57600080fd5b505af115801562000693573d6000803e3d6000fd5b505050602082015160408084015190516323b872dd60e01b81526001600160a01b03918216600482015233602482015260448101889052911691506323b872dd90606401600060405180830381600087803b158015620006f257600080fd5b505af115801562000707573d6000803e3d6000fd5b505050505050505050565b6000620007228284018462001900565b905060008062000736836000015162001097565b5090925090506001600160a01b03808216908316106000816200075a57876200075c565b885b9050306001600160a01b031685602001516001600160a01b031603620007e45760405163a9059cbb60e01b8152336004820152602481018290526001600160a01b0385169063a9059cbb90604401600060405180830381600087803b158015620007c557600080fd5b505af1158015620007da573d6000803e3d6000fd5b5050505062000707565b60208501516040516323b872dd60e01b81526001600160a01b03918216600482015233602482015260448101839052908516906323b872dd90606401600060405180830381600087803b1580156200083b57600080fd5b505af115801562000850573d6000803e3d6000fd5b50505050505050505050505050565b60008060008062000874856000015162001097565b919450925090506001600160a01b03808316908416106000806200089a868686620010db565b6001600160a01b031663dd5a12d88b858e8d6001600160a01b0316600014620008c4578d62000903565b87620008f157620008eb600173fffd8963efd1fc6a506488495d951d5263988d26620019bb565b62000903565b620009036401000276a36001620019e5565b8d60405160200162000916919062001a08565b6040516020818303038152906040526040518663ffffffff1660e01b81526004016200094795949392919062001a47565b60408051808303816000875af115801562000966573d6000803e3d6000fd5b505050506040513d601f19601f820116820180604052508101906200098c91906200185f565b91509150826200099d57816200099f565b805b620009aa9062001a84565b9b9a5050505050505050505050565b6000826001600160a01b0316846001600160a01b031610620009da57600080fd5b6040516001600160601b0319606086811b8216602084015285901b1660348201526001600160e81b031960e884901b1660488201528590604b01604051602081830303815290604052805190602001206040518060200162000a3c9062001495565b6020820181038252601f19601f820116604052508051906020012060405160200162000a98939291906001600160f81b0319815260609390931b6001600160601b03191660018401526015830191909152603582015260550190565b60408051601f19818403018152919052805160209091012095945050505050565b60008060008360020b1262000ad2578260020b62000ae1565b8260020b62000ae19062001a84565b905062000af2620d89e71962001aa3565b62ffffff1681111562000b2c5760405162461bcd60e51b81526020600482015260016024820152601560fa1b604482015260640162000540565b60008160011660000362000b4557600160801b62000b57565b6ffffcb933bd6fad37aa2d162d1a5940015b70ffffffffffffffffffffffffffffffffff169050600282161562000b9957608062000b94826ffff97272373d413259a46990580e213a62001ac8565b901c90505b600482161562000bc657608062000bc1826ffff2e50f5f656932ef12357cf3c7fdcc62001ac8565b901c90505b600882161562000bf357608062000bee826fffe5caca7e10e4e61c3624eaa0941cd062001ac8565b901c90505b601082161562000c2057608062000c1b826fffcb9843d60f6159c9db58835c92664462001ac8565b901c90505b602082161562000c4d57608062000c48826fff973b41fa98c081472e6896dfb254c062001ac8565b901c90505b604082161562000c7a57608062000c75826fff2ea16466c96a3843ec78b326b5286162001ac8565b901c90505b608082161562000ca757608062000ca2826ffe5dee046a99a2a811c461f1969c305362001ac8565b901c90505b61010082161562000cd557608062000cd0826ffcbe86c7900a88aedcffc83b479aa3a462001ac8565b901c90505b61020082161562000d0357608062000cfe826ff987a7253ac413176f2b074cf7815e5462001ac8565b901c90505b61040082161562000d3157608062000d2c826ff3392b0822b70005940c7a398e4b70f362001ac8565b901c90505b61080082161562000d5f57608062000d5a826fe7159475a2c29b7443b29c7fa6e889d962001ac8565b901c90505b61100082161562000d8d57608062000d88826fd097f3bdfd2022b8845ad8f792aa582562001ac8565b901c90505b61200082161562000dbb57608062000db6826fa9f746462d870fdf8a65dc1f90e061e562001ac8565b901c90505b61400082161562000de957608062000de4826f70d869a156d2a1b890bb3df62baf32f762001ac8565b901c90505b61800082161562000e1757608062000e12826f31be135f97d08fd981231505542fcfa662001ac8565b901c90505b6201000082161562000e4657608062000e41826f09aa508b5b7a84e1c677de54f3e99bc962001ac8565b901c90505b6202000082161562000e7457608062000e6f826e5d6af8dedb81196699c329225ee60462001ac8565b901c90505b6204000082161562000ea157608062000e9c826d2216e584f5fa1ea926041bedfe9862001ac8565b901c90505b6208000082161562000ecc57608062000ec7826b048a170391f7dc42444e8fa262001ac8565b901c90505b60008460020b131562000eea5762000ee78160001962001af8565b90505b62000efb6401000000008262001b0f565b1562000f0957600162000f0c565b60005b62000f1f9060ff16602083901c62001b26565b949350505050565b6000836001600160a01b0316856001600160a01b0316111562000f48579293925b846001600160a01b0316866001600160a01b03161162000f775762000f6f85858562001135565b905062000ff0565b836001600160a01b0316866001600160a01b03161162000fe057600062000fa087868662001135565b9050600062000fb18789866200119e565b9050806001600160801b0316826001600160801b03161062000fd4578062000fd6565b815b9250505062000ff0565b62000fed8585846200119e565b90505b95945050505050565b6000620010096003601462001b26565b60146200101860038262001b26565b62001024919062001b26565b62001030919062001b26565b825110159050919050565b60606200020a600060146200105260038262001b26565b6200105e919062001b26565b849190620011d5565b60606200020a6200107b6003601462001b26565b620010896003601462001b26565b84516200105e919062001b3c565b60008080620010a78482620012f0565b9250620010b684601462001359565b9050620010d2620010ca6003601462001b26565b8590620012f0565b91509193909250565b6000826001600160a01b0316846001600160a01b031610620010ff57828462001102565b83835b909450925062000f1f7f0000000000000000000000000000000000000000000000000000000000000000858585620009b9565b6000826001600160a01b0316846001600160a01b0316111562001156579192915b60006200117b856001600160a01b0316856001600160a01b0316600160601b620013ba565b905062000ff083826200118f8888620019bb565b6001600160a01b0316620013ba565b6000826001600160a01b0316846001600160a01b03161115620011bf579192915b62000f1f82600160601b6200118f8787620019bb565b606081620011e581601f62001b26565b1015620012265760405162461bcd60e51b815260206004820152600e60248201526d736c6963655f6f766572666c6f7760901b604482015260640162000540565b62001232828462001b26565b84511015620012785760405162461bcd60e51b8152602060048201526011602482015270736c6963655f6f75744f66426f756e647360781b604482015260640162000540565b606082158015620012995760405191506000825260208201604052620012e5565b6040519150601f8416801560200281840101858101878315602002848b0101015b81831015620012d4578051835260209283019201620012ba565b5050858452601f01601f1916604052505b5090505b9392505050565b6000620012ff82601462001b26565b83511015620013495760405162461bcd60e51b8152602060048201526015602482015274746f416464726573735f6f75744f66426f756e647360581b604482015260640162000540565b500160200151600160601b900490565b60006200136882600362001b26565b83511015620013b15760405162461bcd60e51b8152602060048201526014602482015273746f55696e7432345f6f75744f66426f756e647360601b604482015260640162000540565b50016003015190565b6000808060001985870985870292508281108382030391505080600003620013f957838281620013ee57620013ee62001ae2565b0492505050620012e9565b8381106200142c57604051630c740aef60e31b815260048101879052602481018690526044810185905260640162000540565b60008486880960026001871981018816978890046003810283188082028403028082028403028082028403028082028403028082028403029081029092039091026000889003889004909101858311909403939093029303949094049190911702949350505050565b612bd58062001b5383390190565b600060a08284031215620014b657600080fd5b50919050565b60006101208284031215620014b657600080fd5b634e487b7160e01b600052604160045260246000fd5b600082601f830112620014f857600080fd5b813567ffffffffffffffff80821115620015165762001516620014d0565b604051601f8301601f19908116603f01168101908282118183101715620015415762001541620014d0565b816040528381528660208588010111156200155b57600080fd5b836020870160208301376000602085830101528094505050505092915050565b6001600160a01b03811681146200159157600080fd5b50565b600060208284031215620015a757600080fd5b813567ffffffffffffffff80821115620015c057600080fd5b9083019060808286031215620015d557600080fd5b604051608081018181108382111715620015f357620015f3620014d0565b6040528235828111156200160657600080fd5b6200161487828601620014e6565b8252506020830135915062001629826200157b565b816020820152604083013560408201526060830135606082015280935050505092915050565b60008083601f8401126200166257600080fd5b50813567ffffffffffffffff8111156200167b57600080fd5b6020830191508360208285010111156200169457600080fd5b9250929050565b60008060008060608587031215620016b257600080fd5b8435935060208501359250604085013567ffffffffffffffff811115620016d857600080fd5b620016e6878288016200164f565b95989497509550505050565b6000602082840312156200170557600080fd5b8135620012e9816200157b565b6000602082840312156200172557600080fd5b813562ffffff81168114620012e957600080fd5b8060020b81146200159157600080fd5b600080604083850312156200175d57600080fd5b82516200176a816200157b565b60208401519092506200177d8162001739565b809150509250929050565b6000602082840312156200179b57600080fd5b8135620012e98162001739565b600060208284031215620017bb57600080fd5b8151620012e9816200157b565b6000815180845260005b81811015620017f057602081850181015186830182015201620017d2565b506000602082860101526020601f19601f83011685010191505092915050565b60018060a01b03861681528460020b60208201528360020b60408201526001600160801b038316606082015260a0608082015260006200185460a0830184620017c8565b979650505050505050565b600080604083850312156200187357600080fd5b505080516020909101519092909150565b6000606082840312156200189757600080fd5b6040516060810181811067ffffffffffffffff82111715620018bd57620018bd620014d0565b6040528235620018cd816200157b565b81526020830135620018df816200157b565b60208201526040830135620018f4816200157b565b60408201529392505050565b6000602082840312156200191357600080fd5b813567ffffffffffffffff808211156200192c57600080fd5b90830190604082860312156200194157600080fd5b6040516040810181811083821117156200195f576200195f620014d0565b6040528235828111156200197257600080fd5b6200198087828601620014e6565b8252506020830135925062001995836200157b565b6020810192909252509392505050565b634e487b7160e01b600052601160045260246000fd5b6001600160a01b03828116828216039080821115620019de57620019de620019a5565b5092915050565b6001600160a01b03818116838216019080821115620019de57620019de620019a5565b60208152600082516040602084015262001a266060840182620017c8565b602094909401516001600160a01b0316604093909301929092525090919050565b6001600160a01b0386811682528515156020830152604082018590528316606082015260a0608082018190526000906200185490830184620017c8565b6000600160ff1b820162001a9c5762001a9c620019a5565b5060000390565b60008160020b627fffff19810362001abf5762001abf620019a5565b60000392915050565b80820281158282048414176200020a576200020a620019a5565b634e487b7160e01b600052601260045260246000fd5b60008262001b0a5762001b0a62001ae2565b500490565b60008262001b215762001b2162001ae2565b500690565b808201808211156200020a576200020a620019a5565b818103818111156200020a576200020a620019a556fe6101006040523480156200001257600080fd5b50336001600160a01b031663890357306040518163ffffffff1660e01b81526004016080604051808303816000875af115801562000054573d6000803e3d6000fd5b505050506040513d601f19601f820116820180604052508101906200007a9190620000bd565b62ffffff1660e0526001600160a01b0390811660c05290811660a0521660805262000123565b80516001600160a01b0381168114620000b857600080fd5b919050565b60008060008060808587031215620000d457600080fd5b620000df85620000a0565b9350620000ef60208601620000a0565b9250620000ff60408601620000a0565b9150606085015162ffffff811681146200011857600080fd5b939692955090935050565b60805160a05160c05160e051612a1e620001b760003960008181610244015281816103e0015281816104120152610c9001526000818161027f015281816107b4015281816108cc01528181610a3601528181610f650152611a1e01526000818160d90152818161071c015281816108450152818161099e0152818161109b015261198b0152600061021d0152612a1e6000f3fe608060405234801561001057600080fd5b50600436106100cf5760003560e01c80635339c2961161008c578063d21220a711610066578063d21220a71461027a578063dd5a12d8146102a1578063f30dba93146102b4578063f637731d1461031a57600080fd5b80635339c296146101ea578063c45a015514610218578063d0c93a7c1461023f57600080fd5b80630dfe1681146100d45780631a686502146101185780633850c7bd146101435780633c8a7d8d146101845780634a182392146101ac578063514ea4bf146101c1575b600080fd5b6100fb7f000000000000000000000000000000000000000000000000000000000000000081565b6040516001600160a01b0390911681526020015b60405180910390f35b60015461012b906001600160801b031681565b6040516001600160801b03909116815260200161010f565b600054610162906001600160a01b03811690600160a01b900460020b82565b604080516001600160a01b03909316835260029190910b60208301520161010f565b6101976101923660046124bd565b61032d565b6040805192835260208301919091520161010f565b6101bf6101ba366004612553565b610704565b005b61012b6101cf3660046125a6565b6004602052600090815260409020546001600160801b031681565b61020a6101f83660046125bf565b60036020526000908152604090205481565b60405190815260200161010f565b6100fb7f000000000000000000000000000000000000000000000000000000000000000081565b6102667f000000000000000000000000000000000000000000000000000000000000000081565b60405162ffffff909116815260200161010f565b6100fb7f000000000000000000000000000000000000000000000000000000000000000081565b6101976102af3660046125e2565b610af9565b6102f26102c2366004612632565b6002602052600090815260409020805460019091015460ff82169161010090046001600160801b031690600f0b83565b6040805193151584526001600160801b039092166020840152600f0b9082015260600161010f565b6101bf61032836600461264d565b61124b565b6000808560020b8760020b12158061034c5750620d89e719600288900b125b80610368575061035f620d89e719612680565b60020b8660020b135b15610385576040516264847d60e41b815260040160405180910390fd5b846001600160801b03166000036103af57604051630200e8a960e31b815260040160405180910390fd5b60006103be60028988846112cc565b905060006103d06002898960016112cc565b905081156104045761040460038a7f00000000000000000000000000000000000000000000000000000000000000006113b4565b8015610436576104366003897f00000000000000000000000000000000000000000000000000000000000000006113b4565b6040805160608c901b6bffffffffffffffffffffffff191660208083019190915260e88c811b60348401528b901b60378301528251601a818403018152603a90920183528151918101919091206000908152600490915220610498818961140c565b604080518082019091526000546001600160a01b0381168252600160a01b9004600290810b60208301819052908c900b13156104f0576104e96104da8c611444565b6104e38c611444565b8b61186b565b9550610580565b8960020b816020015160020b1215610568578051610511906104e38c611444565b955061052a81600001516105248d611444565b8b6118ef565b600154909550610543906001600160801b03168a611939565b600180546001600160801b0319166001600160801b0392909216919091179055610580565b61057d6105748c611444565b6105248c611444565b94505b600080871561059457610591611973565b91505b86156105a5576105a2611a06565b90505b60405163d348799760e01b8152339063d3487997906105ce908b908b908f908f906004016126cb565b600060405180830381600087803b1580156105e857600080fd5b505af11580156105fc573d6000803e3d6000fd5b5050505060008811801561061f5750610613611973565b61061d89846126eb565b115b1561063d5760405163098fb56160e01b815260040160405180910390fd5b60008711801561065c5750610650611a06565b61065a88836126eb565b115b1561067a5760405163098fb56160e01b815260040160405180910390fd5b8b60020b8d60020b8f6001600160a01b03167f7a53080ba414158be7ec69b987b5fb7d07dee101fe85488f0853ae16239d0bde338f8d8d6040516106eb94939291906001600160a01b039490941684526001600160801b039290921660208401526040830152606082015260800190565b60405180910390a4505050505050965096945050505050565b6040516370a0823160e01b81523060048201526000907f00000000000000000000000000000000000000000000000000000000000000006001600160a01b0316906370a08231906024016020604051808303816000875af115801561076d573d6000803e3d6000fd5b505050506040513d601f19601f8201168201806040525081019061079191906126fe565b6040516370a0823160e01b81523060048201529091506000906001600160a01b037f000000000000000000000000000000000000000000000000000000000000000016906370a08231906024016020604051808303816000875af11580156107fd573d6000803e3d6000fd5b505050506040513d601f19601f8201168201806040525081019061082191906126fe565b905085156108aa5760405163a9059cbb60e01b8152336004820152602481018790527f00000000000000000000000000000000000000000000000000000000000000006001600160a01b03169063a9059cbb90604401600060405180830381600087803b15801561089157600080fd5b505af11580156108a5573d6000803e3d6000fd5b505050505b84156109315760405163a9059cbb60e01b8152336004820152602481018690527f00000000000000000000000000000000000000000000000000000000000000006001600160a01b03169063a9059cbb90604401600060405180830381600087803b15801561091857600080fd5b505af115801561092c573d6000803e3d6000fd5b505050505b6040516372642be560e11b8152339063e4c857ca906109569087908790600401612717565b600060405180830381600087803b15801561097057600080fd5b505af1158015610984573d6000803e3d6000fd5b50506040516370a0823160e01b81523060048201528492507f00000000000000000000000000000000000000000000000000000000000000006001600160a01b031691506370a08231906024016020604051808303816000875af11580156109f0573d6000803e3d6000fd5b505050506040513d601f19601f82011682018060405250810190610a1491906126fe565b1015610a1f57600080fd5b6040516370a0823160e01b815230600482015281907f00000000000000000000000000000000000000000000000000000000000000006001600160a01b0316906370a08231906024016020604051808303816000875af1158015610a87573d6000803e3d6000fd5b505050506040513d601f19601f82011682018060405250810190610aab91906126fe565b1015610ab657600080fd5b604080518781526020810187905233917f1c1db1f1d6a01e51fec24bb54087b65fe5430f692280e70d92f718eb72ae76b7910160405180910390a2505050505050565b60408051808201909152600080546001600160a01b0381168352600160a01b900460020b6020830152600154909182916001600160801b031688610b7c5781600001516001600160a01b0316876001600160a01b03161080610b77575073fffd8963efd1fc6a506488495d951d5263988d266001600160a01b038816115b610bad565b81600001516001600160a01b0316876001600160a01b03161180610bad57506401000276a36001600160a01b038816105b15610bcb57604051632d4eeeb360e21b815260040160405180910390fd5b60006040518060a001604052808a81526020016000815260200184600001516001600160a01b03168152602001846020015160020b8152602001836001600160801b031681525090505b805115801590610c3b5750876001600160a01b031681604001516001600160a01b031614155b15610e74576040805160c081018252600080825260208201819052918101829052606081018290526080810182905260a081019190915260408201516001600160a01b031681526060820151610cb5906003907f00000000000000000000000000000000000000000000000000000000000000008e611a55565b5060020b60208201819052610cc990611444565b6001600160a01b031660608201526040820151610d39908c610d03578a6001600160a01b031683606001516001600160a01b031611610d1d565b8a6001600160a01b031683606001516001600160a01b0316105b610d2b578260600151610d2d565b8a5b60808501518551611c0d565b60a0840152608083019081526001600160a01b0390911660408401525182518390610d6590839061272b565b90525060a0810151602083018051610d7e9083906126eb565b905250606081015160408301516001600160a01b03918216911603610e37576000610db782602001516002611c8f90919063ffffffff16565b90508b15610dcb57610dc88161273e565b90505b610dd9836080015182611939565b6001600160801b031660808401819052600003610e0957604051634323a55560e01b815260040160405180910390fd5b8b610e18578160200151610e29565b60018260200151610e299190612764565b60020b606084015250610e6e565b80600001516001600160a01b031682604001516001600160a01b031614610e6e57610e658260400151611cab565b60020b60608301525b50610c15565b826020015160020b816060015160020b14610ed05760408101516060820151600080546001600160a01b039093166001600160a01b031962ffffff909316600160a01b02929092166001600160b81b0319909316929092171790555b80608001516001600160801b0316826001600160801b031614610f12576080810151600180546001600160801b0319166001600160801b039092169190911790555b89610f36578060200151610f2590612789565b8151610f31908b61272b565b610f50565b8051610f42908a61272b565b8160200151610f5090612789565b90955093508915611091576001600160a01b037f00000000000000000000000000000000000000000000000000000000000000001663a9059cbb8c610f9487612789565b6040516001600160e01b031960e085901b1681526001600160a01b0390921660048301526024820152604401600060405180830381600087803b158015610fda57600080fd5b505af1158015610fee573d6000803e3d6000fd5b505050506000610ffc611973565b60405163fa461e3360e01b8152909150339063fa461e339061102890899089908d908d906004016126cb565b600060405180830381600087803b15801561104257600080fd5b505af1158015611056573d6000803e3d6000fd5b50505050611062611973565b61106c87836126eb565b111561108b5760405163098fb56160e01b815260040160405180910390fd5b506111c3565b6001600160a01b037f00000000000000000000000000000000000000000000000000000000000000001663a9059cbb8c6110ca88612789565b6040516001600160e01b031960e085901b1681526001600160a01b0390921660048301526024820152604401600060405180830381600087803b15801561111057600080fd5b505af1158015611124573d6000803e3d6000fd5b505050506000611132611a06565b60405163fa461e3360e01b8152909150339063fa461e339061115e90899089908d908d906004016126cb565b600060405180830381600087803b15801561117857600080fd5b505af115801561118c573d6000803e3d6000fd5b50505050611198611a06565b6111a286836126eb565b11156111c15760405163098fb56160e01b815260040160405180910390fd5b505b60005460808281015160408051898152602081018990526001600160a01b03808616828401526001600160801b039093166060820152600160a01b90940460020b928401929092529051908d169133917fc42079f94a6350d7e6235f29174924f928cc2ac818eb64fed8004e115fbcca679181900360a00190a3505050965096945050505050565b6000546001600160a01b0316156112745760405162dc149f60e41b815260040160405180910390fd5b600061127f82611cab565b604080518082019091526001600160a01b03909316808452600282900b6020909401939093526000805462ffffff909216600160a01b026001600160b81b03199092169093171790915550565b600283900b6000908152602085905260408120805461010090046001600160801b0316826112fa8287611939565b6001600160801b038082161590841680159190911415955090915060000361132857825460ff191660011783555b825470ffffffffffffffffffffffffffffffff0019166101006001600160801b038316021783558461136f57600183015461136a90600f88810b91900b6127a5565b611385565b600183015461138590600f88810b91900b6127cd565b60019390930180546001600160801b0319166001600160801b0390941693909317909255509095945050505050565b6113be818361280a565b60020b156113cb57600080fd5b6000806113e06113db848661282c565b611fe5565b600191820b60009081526020979097526040909620805460ff9097169190911b90951890945550505050565b81546001600160801b031660006114238383612866565b84546001600160801b0319166001600160801b039190911617909355505050565b60008060008360020b1261145b578260020b611468565b8260020b61146890612789565b9050611477620d89e719612680565b62ffffff168111156114b45760405162461bcd60e51b81526020600482015260016024820152601560fa1b60448201526064015b60405180910390fd5b6000816001166000036114cb57600160801b6114dd565b6ffffcb933bd6fad37aa2d162d1a5940015b70ffffffffffffffffffffffffffffffffff169050600282161561151c576080611517826ffff97272373d413259a46990580e213a612886565b901c90505b6004821615611546576080611541826ffff2e50f5f656932ef12357cf3c7fdcc612886565b901c90505b600882161561157057608061156b826fffe5caca7e10e4e61c3624eaa0941cd0612886565b901c90505b601082161561159a576080611595826fffcb9843d60f6159c9db58835c926644612886565b901c90505b60208216156115c45760806115bf826fff973b41fa98c081472e6896dfb254c0612886565b901c90505b60408216156115ee5760806115e9826fff2ea16466c96a3843ec78b326b52861612886565b901c90505b6080821615611618576080611613826ffe5dee046a99a2a811c461f1969c3053612886565b901c90505b61010082161561164357608061163e826ffcbe86c7900a88aedcffc83b479aa3a4612886565b901c90505b61020082161561166e576080611669826ff987a7253ac413176f2b074cf7815e54612886565b901c90505b610400821615611699576080611694826ff3392b0822b70005940c7a398e4b70f3612886565b901c90505b6108008216156116c45760806116bf826fe7159475a2c29b7443b29c7fa6e889d9612886565b901c90505b6110008216156116ef5760806116ea826fd097f3bdfd2022b8845ad8f792aa5825612886565b901c90505b61200082161561171a576080611715826fa9f746462d870fdf8a65dc1f90e061e5612886565b901c90505b614000821615611745576080611740826f70d869a156d2a1b890bb3df62baf32f7612886565b901c90505b61800082161561177057608061176b826f31be135f97d08fd981231505542fcfa6612886565b901c90505b6201000082161561179c576080611797826f09aa508b5b7a84e1c677de54f3e99bc9612886565b901c90505b620200008216156117c75760806117c2826e5d6af8dedb81196699c329225ee604612886565b901c90505b620400008216156117f15760806117ec826d2216e584f5fa1ea926041bedfe98612886565b901c90505b62080000821615611819576080611814826b048a170391f7dc42444e8fa2612886565b901c90505b60008460020b1315611834576118318160001961289d565b90505b611843640100000000826128b1565b1561184f576001611852565b60005b6118639060ff16602083901c6126eb565b949350505050565b6000826001600160a01b0316846001600160a01b0316111561188b579192915b6000846001600160a01b0316116118a157600080fd5b6118636118da600160601b600160e01b03606085901b166118c287876128c5565b6001600160a01b0316866001600160a01b0316612002565b856001600160a01b0316808204910615150190565b6000826001600160a01b0316846001600160a01b0316111561190f579192915b6118636001600160801b03831661192686866128c5565b6001600160a01b0316600160601b612002565b60008082600f0b12156119605761194f8261273e565b61195990846128e5565b905061196d565b61196a8284612866565b90505b92915050565b6040516370a0823160e01b81523060048201526000907f00000000000000000000000000000000000000000000000000000000000000006001600160a01b0316906370a08231906024015b6020604051808303816000875af11580156119dd573d6000803e3d6000fd5b505050506040513d601f19601f82011682018060405250810190611a0191906126fe565b905090565b6040516370a0823160e01b81523060048201526000907f00000000000000000000000000000000000000000000000000000000000000006001600160a01b0316906370a08231906024016119be565b60008080611a63858761282c565b905060008660020b128015611a835750611a7d858761280a565b60020b15155b15611a965780611a9281612905565b9150505b8315611b4357600080611aa883611fe5565b90925090506000600160ff831681901b90611ac3908261272b565b611acd91906126eb565b600184900b600090815260208c905260409020548116801515965090915085611b0d5788611afe60ff851687612764565b611b089190612928565b611b38565b88611b178261204d565b611b219085612948565b611b2e9060ff1687612764565b611b389190612928565b965050505050611c03565b600080611b546113db846001612961565b90925090506000611b6c600160ff841681901b61272b565b600184900b600090815260208c905260409020549019908116801515965090915085611bc55788611b9e8460ff612948565b60ff16611bac876001612961565b611bb69190612961565b611bc09190612928565b611bfc565b8883611bd083612145565b611bda9190612948565b60ff16611be8876001612961565b611bf29190612961565b611bfc9190612928565b9650505050505b5094509492505050565b600080806001600160a01b03808716908816101580611c3657611c318888886118ef565b611c41565b611c4188888861186b565b9250828510611c5257869350611c61565b611c5e88878784612270565b93505b611c6c88858861186b565b9250611c798885886118ef565b915080611c84579091905b509450945094915050565b60020b60009081526020919091526040902060010154600f0b90565b60006401000276a36001600160a01b03831610801590611ce7575073fffd8963efd1fc6a506488495d951d5263988d266001600160a01b038316105b611d175760405162461bcd60e51b81526020600482015260016024820152602960f91b60448201526064016114ab565b640100000000600160c01b03602083901b166001600160801b03811160071b81811c67ffffffffffffffff811160061b90811c63ffffffff811160051b90811c61ffff811160041b90811c60ff8111600390811b91821c600f811160021b90811c918211600190811b92831c97908811961790941790921717909117171760808110611db257611da8607f8261272b565b83901c9150611dc3565b611dbd81607f61272b565b83901b91505b60006040611dd26080846127cd565b901b9050828302607f1c92508260801c80603f1b8217915083811c935050828302607f1c92508260801c80603e1b8217915083811c935050828302607f1c92508260801c80603d1b8217915083811c935050828302607f1c92508260801c80603c1b8217915083811c935050828302607f1c92508260801c80603b1b8217915083811c935050828302607f1c92508260801c80603a1b8217915083811c935050828302607f1c92508260801c8060391b8217915083811c935050828302607f1c92508260801c8060381b8217915083811c935050828302607f1c92508260801c8060371b8217915083811c935050828302607f1c92508260801c8060361b8217915083811c935050828302607f1c92508260801c8060351b8217915083811c935050828302607f1c92508260801c8060341b8217915083811c935050828302607f1c92508260801c8060331b8217915083811c935050828302607f1c92508260801c8060321b8217915050600081693627a301d71055774c85611f559190612986565b905060006080611f756f028f6481ab7f045a5af012a19d003aaa846127cd565b901d905060006080611f97846fdb2df09e81959a81455e260799a0632f6127a5565b901d90508060020b8260020b14611fd657886001600160a01b0316611fbb82611444565b6001600160a01b03161115611fd05781611fd8565b80611fd8565b815b9998505050505050505050565b600281900b60081d6000611ffb6101008461280a565b9050915091565b600061200f84848461229b565b905060008280612021576120216127f4565b848609111561204657600019811061203857600080fd5b80612042816129b6565b9150505b9392505050565b600080821161205b57600080fd5b600160801b821061207957608091821c9161207690826129cf565b90505b68010000000000000000821061209c57604091821c9161209990826129cf565b90505b64010000000082106120bb57602091821c916120b890826129cf565b90505b6201000082106120d857601091821c916120d590826129cf565b90505b61010082106120f457600891821c916120f190826129cf565b90505b6010821061210f57600491821c9161210c90826129cf565b90505b6004821061212a57600291821c9161212790826129cf565b90505b600282106121405761213d6001826129cf565b90505b919050565b600080821161215357600080fd5b5060ff6001600160801b0382161561217757612170608082612948565b905061217f565b608082901c91505b67ffffffffffffffff8216156121a15761219a604082612948565b90506121a9565b604082901c91505b63ffffffff8216156121c7576121c0602082612948565b90506121cf565b602082901c91505b61ffff8216156121eb576121e4601082612948565b90506121f3565b601082901c91505b60ff82161561220e57612207600882612948565b9050612216565b600882901c91505b600f8216156122315761222a600482612948565b9050612239565b600482901c91505b60038216156122545761224d600282612948565b905061225c565b600282901c91505b60018216156121405761213d600182612948565b6000816122875761228285858561236f565b612292565b61229285858561239c565b95945050505050565b60008080600019858709858702925082811083820303915050806000036122d5578382816122cb576122cb6127f4565b0492505050612046565b83811061230657604051630c740aef60e31b81526004810187905260248101869052604481018590526064016114ab565b60008486880960026001871981018816978890046003810283188082028403028082028403028082028403028082028403028082028403029081029092039091026000889003889004909101858311909403939093029303949094049190911702949350505050565b600061238982600160601b856001600160801b031661229b565b611863906001600160a01b0386166126eb565b6000600160601b600160e01b03606084901b16816123c36001600160a01b03871685612886565b90506001600160a01b0386166123d9858361289d565b036124135760006123ea82846126eb565b90508281106124115761240783886001600160a01b031683612002565b9350505050612046565b505b612440828561242b6001600160a01b038a168361289d565b61243591906126eb565b808204910615150190565b9695505050505050565b6001600160a01b038116811461245f57600080fd5b50565b8035600281900b811461214057600080fd5b60008083601f84011261248657600080fd5b50813567ffffffffffffffff81111561249e57600080fd5b6020830191508360208285010111156124b657600080fd5b9250929050565b60008060008060008060a087890312156124d657600080fd5b86356124e18161244a565b95506124ef60208801612462565b94506124fd60408801612462565b935060608701356001600160801b038116811461251957600080fd5b9250608087013567ffffffffffffffff81111561253557600080fd5b61254189828a01612474565b979a9699509497509295939492505050565b6000806000806060858703121561256957600080fd5b8435935060208501359250604085013567ffffffffffffffff81111561258e57600080fd5b61259a87828801612474565b95989497509550505050565b6000602082840312156125b857600080fd5b5035919050565b6000602082840312156125d157600080fd5b81358060010b811461204657600080fd5b60008060008060008060a087890312156125fb57600080fd5b86356126068161244a565b95506020870135801515811461261b57600080fd5b94506040870135935060608701356125198161244a565b60006020828403121561264457600080fd5b61196a82612462565b60006020828403121561265f57600080fd5b81356120468161244a565b634e487b7160e01b600052601160045260246000fd5b60008160020b627fffff1981036126995761269961266a565b60000392915050565b81835281816020850137506000828201602090810191909152601f909101601f19169091010190565b8481528360208201526060604082015260006124406060830184866126a2565b8082018082111561196d5761196d61266a565b60006020828403121561271057600080fd5b5051919050565b6020815260006118636020830184866126a2565b8181038181111561196d5761196d61266a565b600081600f0b6f7fffffffffffffffffffffffffffffff1981036126995761269961266a565b600282810b9082900b03627fffff198112627fffff8213171561196d5761196d61266a565b6000600160ff1b820161279e5761279e61266a565b5060000390565b80820182811260008312801582168215821617156127c5576127c561266a565b505092915050565b81810360008312801583831316838312821617156127ed576127ed61266a565b5092915050565b634e487b7160e01b600052601260045260246000fd5b60008260020b8061281d5761281d6127f4565b808360020b0791505092915050565b60008160020b8360020b80612843576128436127f4565b627fffff1982146000198214161561285d5761285d61266a565b90059392505050565b6001600160801b038181168382160190808211156127ed576127ed61266a565b808202811582820484141761196d5761196d61266a565b6000826128ac576128ac6127f4565b500490565b6000826128c0576128c06127f4565b500690565b6001600160a01b038281168282160390808211156127ed576127ed61266a565b6001600160801b038281168282160390808211156127ed576127ed61266a565b60008160020b627fffff19810361291e5761291e61266a565b6000190192915050565b60008260020b8260020b028060020b91508082146127ed576127ed61266a565b60ff828116828216039081111561196d5761196d61266a565b600281810b9083900b01627fffff8113627fffff198212171561196d5761196d61266a565b80820260008212600160ff1b841416156129a2576129a261266a565b818105831482151761196d5761196d61266a565b6000600182016129c8576129c861266a565b5060010190565b60ff818116838216019081111561196d5761196d61266a56fea264697066735822122014856f9b8c944c0a723ac978d26b83452cb668aca015ef5aaf32411788f3568b64736f6c63430008130033a264697066735822122069f35e5f3d2cc5fb4a166568d47f7c81124a71e158fcf42209b3eed9199c298164736f6c63430008130033",
    "sourcePath": "/home/fs/code/git-repo/uniswapV3-prac/src/UniswapV3Manager.sol",
    "compiler": {
        "name": "solc",
        "version": "0.8.19+commit.7dd6d404"
    },
    "functionHashes": {
        "factory()": "c45a0155",
        "mint((address,address,uint24,int24,int24,uint256,uint256,uint256,uint256))": "aa88a96c",
        "swap((bytes,address,uint256,uint256))": "cf8c2a38",
        "swapSingle((address,address,uint24,uint256,uint160))": "049bbb12",
        "uniswapV3MintCallback(uint256,uint256,bytes)": "d3487997",
        "uniswapV3SwapCallback(int256,int256,bytes)": "fa461e33"
    },
    "gasEstimates": {
        "creation": {
            "codeDepositCost": "3653800",
            "executionCost": "infinite",
            "totalCost": "infinite"
        },
        "external": {
            "factory()": "infinite",
            "mint((address,address,uint24,int24,int24,uint256,uint256,uint256,uint256))": "infinite",
            "swap((bytes,address,uint256,uint256))": "infinite",
            "swapSingle((address,address,uint24,uint256,uint160))": "infinite",
            "uniswapV3MintCallback(uint256,uint256,bytes)": "infinite",
            "uniswapV3SwapCallback(int256,int256,bytes)": "infinite"
        },
        "internal": {
            "_swap(uint256,address,uint160,struct IUniswapV3Manager.SwapCallbackData memory)": "infinite",
            "getPool(address,address,uint24)": "infinite"
        }
    }
}